:020000040800F2
:100000005813002055040008D5010008D701000846
:10001000E1010008E3010008E5010008000000001C
:10002000000000000000000000000000E7010008E0
:10003000E901000800000000EB010008ED010008E4
:100040006F0400086F0400086F0400086F040008C4
:100050006F0400086F0400086F0400086F040008B4
:100060006F0400086F0400086F0400086F040008A4
:100070006F0400086F0400086F0400086F04000894
:100080006F0400086F0400086F0400086F04000884
:100090006F0400086F0400086F0400086F04000874
:1000A0006F0400086F0400086F0400086F04000864
:1000B0006F040008EF0100080F3A00086F04000801
:1000C0006F0400086F0400086F0400086F04000844
:1000D0006F040008492300086F0400086F0400083B
:1000E0006F0400086F0400086F04000800F002F8B5
:1000F00000F05FF80AA090E8000C82448344AAF163
:100100000107DA4501D100F054F8AFF2090EBAE860
:100110000F0013F0010F18BFFB1A43F0010318473B
:1001200068490000884900000A444FF0000C10F8AC
:10013000013B13F0070408BF10F8014B1D1108BF65
:1001400010F8015B641E05D010F8016B641E01F805
:10015000016BF9D113F0080F1EBF10F8014BAD1C55
:100160000C1B09D16D1E58BF01F801CBFAD505E073
:1001700014F8016B01F8016B6D1EF9D59142D6D3CD
:10018000704700000023002400250026103A28BFF5
:1001900078C1FBD8520728BF30C148BF0B607047F9
:1001A000782903F04185002070471FB51FBD10B5A9
:1001B00010BD03F093FE1146FFF7F7FF02F026F99A
:1001C00003F0B1FE03B4FFF7F2FF03BC02F058F8EE
:1001D00030BF000070471AA003F0DEFC00BFFEE74E
:1001E000704770477047704770477047704710B549
:1001F00001211A4801F036FE19480068401C1849D0
:1002000008601848006828B117480068401C164963
:10021000086002E000201449086014480088401C6F
:1002200012490880084600880A2807D1104800684B
:10023000401C0F49086000200C49088010BD0000D8
:100240000D0A486172644661756C745F48616E6442
:100250006C6572204552524F520D0A000004004056
:1002600098080020B0080020A4080020000000200A
:10027000040000200CB50020019000906C4800683C
:1002800040F480306A49086000BF6948006800F4A3
:10029000003000900198401C0190009818B9019816
:1002A000B0F5A06FF1D16248006800F4003010B1E1
:1002B0000120009001E0002000900098012843D127
:1002C0005C48006840F010005A4908600846006821
:1002D00020F0030008600846006840F00200086053
:1002E000534840685249486008464068486008469C
:1002F000406840F4806048600846406820F47C1004
:1003000048600846406840F4E810486008460068C5
:1003100040F08070086000BF4548006800F0007041
:100320000028F9D04248406820F003004049486066
:100330000846406840F00200486000BF3C48406802
:1003400000F00C000828F9D10CBD10B5FFF792FFA2
:1003500010BD10B53648006840F00100344908600F
:1003600008464068344908403149486008460068FA
:10037000324908402E4908600846006820F4802071
:1003800008600846406820F4FE0048604FF41F00F3
:100390008860FFF7DAFF4FF000602949086010BD60
:1003A00010B5002100200022214B5B6803F00C01F6
:1003B00021B1042906D0082928D107E0214B224C7D
:1003C000236027E01F4B204C236023E0184B5B6821
:1003D00003F47010164B5B6803F48032022303EBC6
:1003E000904022B9194B4343174C23600DE0104B4A
:1003F0005B6803F4003323B1144B4343124C236076
:1004000003E0104B4343104C236003E00D4B0E4CB4
:10041000236000BF00BF064B5B68C3F303130C4CA3
:10042000E15C094B1B68CB40074C236010BD00000A
:1004300000100240002002400000FFF8FFFFF6FE1F
:1004400008ED00E000127A000800002000093D00DD
:100450000C0000200948804709480047FEE7FEE7F6
:10046000FEE7FEE7FEE7FEE7FEE7FEE7FEE7FEE764
:1004700004480549054A064B70470000530300082D
:10048000ED000008580D002058130020580F0020E0
:10049000580F002031490143314A1160704770B54F
:1004A000002100230F22C47804B32D4C246804F4E7
:1004B000E064C4F5E064210AC1F10403CA40447851
:1004C00004FA03F18478144021430901254C06788D
:1004D000A155047804F01F050124AC4005786D1186
:1004E000AD0005F1E025C5F8004109E0047804F00D
:1004F0001F050124AC401C4D0678761145F82640B6
:1005000070BD1A4A0A400243154B1B1F1A60704700
:1005100039B1134A121D12680243114B1B1D1A6098
:1005200006E00F4A121D126882430D4B1B1D1A6014
:100530007047042808D14FF0E021096941F0040117
:100540004FF0E022116107E04FF0E021096921F04E
:1005500004014FF0E0221161704700000000FA052D
:100560000CED00E000E400E080E100E080FFFF1F10
:1005700010B50446CC48844208D10121042000F083
:100580002DFB0021042000F029FB46E0C7488442EF
:1005900008D10121082000F021FB0021082000F0F3
:1005A0001DFB3AE0C248844208D10121102000F02E
:1005B00015FB0021102000F011FB2EE0BD48844205
:1005C00008D10121202000F009FB0021202000F0AB
:1005D00005FB22E0B848844208D10121402000F008
:1005E000FDFA0021402000F0F9FA16E0B3488442F9
:1005F00008D10121802000F0F1FA0021802000F0D4
:10060000EDFA0AE0AE48844207D10121801500F0DE
:10061000E5FA0021A01500F0E1FA10BD10B50121A6
:10062000084600F0DBFA0021012000F0D7FA10BDE7
:100630002DE9F04102460025002600200023002479
:10064000002791F803C00CF00F0591F803C00CF0DF
:10065000100CBCF1000F03D091F802C04CEA050564
:1006600091F800C0BCF1000F31D0146800202BE0DD
:100670004FF0010C0CFA00F3B1F800C00CEA0306CD
:100680009E4220D183004FF00F0C0CFA03F7BC43BD
:1006900005FA03FC4CEA040491F803C0BCF1280FEE
:1006A00006D14FF0010C0CFA00FCC2F814C00AE0AD
:1006B00091F803C0BCF1480F05D14FF0010C0CFAC2
:1006C00000FCC2F810C0401C0828D1D31460B1F857
:1006D00000C0BCF1FF0F34DD546800202EE000F1B3
:1006E000080C4FF0010808FA0CF3B1F800C00CEA4E
:1006F00003069E4221D183004FF00F0C0CFA03F742
:10070000BC4305FA03FC4CEA040491F803C0BCF1B5
:10071000280F05D100F1080C08FA0CF8C2F8148073
:1007200091F803C0BCF1480F07D100F1080C4FF05D
:10073000010808FA0CF8C2F81080401C0828CED333
:100740005460BDE8F0814FF6FF7101800221817095
:100750000421C17070470246002093680B400BB122
:10076000012000E0002070470146886880B2704791
:1007700002460020D3680B400BB1012000E00020AE
:1007800070470146C86880B2704701617047416197
:1007900070470AB1016100E041617047C160704774
:1007A0004FF480320A438261816182618269826989
:1007B000704702460020434B18684FF6807318407C
:1007C00040EA021008433F4B186070473E49C86139
:1007D0007047F0B50A46002300240021002500F0F0
:1007E0000046B6F1004F02D1364EF16901E0354EB8
:1007F0007168C0F3034583B200F44016B6F5401F9C
:1008000008D121F070612F4E766826F070662D4F6A
:100810007E6012E000F48016B6F5801F06D1032634
:1008200006FA05F4A14341F0706106E0460D360179
:1008300003FA06F6B14341F0706122B1460D36016C
:1008400003FA06F6314300F00046B6F1004F02D13C
:100850001C4EF16101E01B4E7160F0BD30B500220D
:100860008B071C0F0F2303FA04F2164B08338C106E
:1008700053F824309343134C08348D1044F825303A
:1008800023468C1053F824308C07240F00FA04F40C
:1008900023430C4C08348D1044F8253030BD0A49F0
:1008A000DC3108607047000000080140000C014086
:1008B000001001400014014000180140001C0140DC
:1008C000002001400000014000002042DF48006895
:1008D00040F00100DD49086008464068DC490840F6
:1008E000DA49486008460068DA490840D749086094
:1008F0000846006820F4802008600846406820F41C
:10090000FE0048604FF41F0088607047CF490968B7
:1009100021F48031CD4A11601146096821F480210B
:100920001160B0F5803F03D0B0F5802F0ED106E006
:10093000C649096841F48031C44A116007E0C349DF
:10094000096841F4A021C14A116000E000BF00BF66
:10095000704710B501460022002300204A11012AE9
:1009600002D1BA4C236806E0022A02D1B74C236AAE
:1009700001E0B64C636A01F01F02012494401C4060
:100980000CB1012000E0002010BD38B5002000901F
:100990000024002500BF3120FFF7DBFF054600984B
:1009A000401C00900098B0F5A06F01D0002DF2D04F
:1009B0003120FFF7CEFF08B1012400E000242046DB
:1009C00038BD01460020A14A106820F0F80040EA36
:1009D000C10010607047A0490860704702460020BF
:1009E0009A4B586820F47C1042EA01031843974B55
:1009F0005860704798490866704701460020934A3E
:100A0000506820F003000843506070478F484068EA
:100A100000F00C007047014600208C4A506820F01E
:100A2000F00008435060704701460020874A506834
:100A300020F4E06008435060704701460020834A7C
:100A4000506820F4605040EAC1005060704729B1FE
:100A50007E4A527A02437D4B5A7204E07B4A527AB4
:100A600082437A4B5A7270477B49D831086070478D
:100A700001460020754A506820F440400843506009
:100A800070470021714A20321170704A82F820109C
:100A9000012802D004280AD104E001216B4A203247
:100AA000117005E00521694A2032117000E000BF95
:100AB00000BF70476949086070476449096A01438B
:100AC000624A11627047654944390860704730B521
:100AD00000210022002400235C4D6D6805F00C010C
:100AE00021B1042905D0082923D105E05C4D05601A
:100AF00022E05B4D05601FE0544D6D6805F47012F7
:100B0000524D6D6805F48034022505EB92421CB904
:100B1000544D554305600BE04C4D6D6805F40035B0
:100B20001DB1504D5543056002E04D4D55430560E4
:100B300002E04B4D056000BF00BF444D6D6805F0FD
:100B4000F0010909484D6B5C0568DD4045603F4D8B
:100B50006D6805F4E061090A434D6B5C4568DD4052
:100B600085603A4D6D6805F46051C90A3E4D6B5C75
:100B70004568DD40C560354D6D6805F44041890B21
:100B80003A4D6B5CC568B5FBF3F5056130BD29B125
:100B90002E4A526902432D4B5A6104E02B4A526996
:100BA00082432A4B5A61704729B1284A926902430D
:100BB000264B9A6104E0254A92698243234B9A614D
:100BC000704729B1214AD2690243204BDA6104E01F
:100BD0001E4AD26982431D4BDA61704729B11B4A14
:100BE000D2680243194BDA6004E0184AD2688243A3
:100BF000164BDA60704729B1144A12690243134B4D
:100C00001A6104E0114A12698243104B1A6170475D
:100C100012494039086070470F49C86470470B4952
:100C2000C87170470948406A40F0807007494862BF
:100C3000704701460020054A92680A400AB1012027
:100C400000E00020704701498872704700100240A0
:100C50000000FFF8FFFFF6FE00004242800442421F
:100C600000127A0000093D001C0000202C0000202A
:100C700010B50446FB48844209D101218803FFF7DF
:100C8000ADFF00214FF48040FFF7A8FF32E0F648A7
:100C9000844209D101214804FFF7ADFF00214FF440
:100CA0000030FFF7A8FF25E0F048844209D1012178
:100CB0008804FFF7A0FF00214FF48020FFF79BFF7F
:100CC00018E0EB48844209D10121C804FFF793FFE3
:100CD00000214FF40020FFF78EFF0BE0E54884422F
:100CE00008D101210805FFF786FF00214FF480108D
:100CF000FFF781FF10BD2DE9F04786B005460E468F
:100D00000024A24600BFA1460027B08900B100BF61
:100D10002F462C8A4CF6FF700440F08804432C8246
:100D2000AC894EF6F3100440B088318908437189CC
:100D300008430443AC81AC8A4FF6FF400440B089BD
:100D40000443AC8201A8FFF7C2FEC648874202D125
:100D5000DDF810A001E0DDF80CA0A88900F4004047
:100D600040B10AEBCA0000EB0A1031684900B0FB41
:100D7000F1F807E00AEBCA0000EB0A1031688900BD
:100D8000B0FBF1F86420B8FBF0F004012009642105
:100D900001FB1089A88900F4004040B1322000EB2B
:100DA000C900B0FBF1F000F00700044308E0322076
:100DB00000EB09106421B0FBF1F000F00F000443D8
:100DC0002C8106B0BDE8F0874FF416510160002178
:100DD0008180C18001810C21418100218181704786
:100DE00010B502460020108A4FF2FF0318400B880E
:100DF0004C8823438C882343CC8823431843108298
:100E000010BD0021018041808180C180704721B1E7
:100E1000828942F40052828104E082894DF6FF7398
:100E20001A4082817047F0B5034600240026002551
:100E3000002040F66A17B94200D100BF1846C1F33E
:100E4000421401F01F06012707FA06F5012C01D113
:100E50000C3004E0022C01D1103000E014301AB143
:100E600007682F43076002E00768AF430760F0BDE3
:100E70001AB1838A0B43838202E0838A8B43838285
:100E80007047028A4FF6F0731A400282028A0A43C0
:100E90000282704782894FF2FF731A4082818289F1
:100EA0000A438281704721B1828942F00202828125
:100EB00004E082894FF6FD731A4082817047028AEE
:100EC0004FF6DF731A400282028A0A430282704799
:100ED00021B1028A42F48042028204E0028A4BF687
:100EE000FF731A4002827047C1F308028280704784
:100EF00001468888C0F308007047818941F00101EC
:100F000081817047028BD2B20283028B42EA0122B6
:100F100002837047028B02F47F420283028B0A43F2
:100F20000283704721B1828A42F02002828204E06B
:100F3000828A4FF6DF731A408282704721B1828A1B
:100F400042F01002828204E0828A4FF6EF731A4068
:100F50008282704721B1828A42F00802828204E0D4
:100F6000828A4FF6F7731A408282704721B18289D4
:100F700042F40042828103E08289C2F30E02828140
:100F8000704721B1828A42F40062828204E0828A40
:100F90004FF2FF731A4082827047828A4FF6FB73CA
:100FA0001A408282828A0A438282704721B1828AF1
:100FB00042F00202828204E0828A4FF6FD731A40F8
:100FC0008282704702460020B1F5007F00D100BF49
:100FD00013880B400BB1012000E00020704701F4A2
:100FE0000072B2F5007F00D100BFCA430280704793
:100FF00070B50246002400230025002040F66A1642
:10100000B14200D100BFC1F3421501F01F03012618
:1010100006FA03F3012D02D19689334006E0022D32
:1010200002D1168A334001E0968A33400C12012621
:1010300006FA04F41688344013B10CB1012000E024
:10104000002070BD10B50022002340F66A14A142B2
:1010500000D100BF0A1201249440A3B2DC430480F3
:1010600010BD00000038014000440040004800402E
:10107000004C00400050004010B50446FE48844239
:1010800008D10121C014FFF7A9FD0021E014FFF7EA
:10109000A5FDC4E0B4F1804F08D101210846FFF757
:1010A000AAFD00210120FFF7A6FDB8E0F348844225
:1010B00008D101210220FFF79EFD00210220FFF749
:1010C0009AFDACE0EE48844208D101210420FFF7EC
:1010D00092FD00210420FFF78EFDA0E0E948844244
:1010E00008D101210820FFF786FD00210820FFF725
:1010F00082FD94E0E448844208D101211020FFF7EA
:101100007AFD00211020FFF776FD88E0DF48844259
:1011100008D101212020FFF76EFD00212020FFF7DC
:101120006AFD7CE0DA48844208D101214014FFF7CF
:1011300055FD00216014FFF751FD70E0D548844251
:1011400009D10121C804FFF749FD00214FF4002017
:10115000FFF744FD63E0D048844209D1012108052E
:10116000FFF73CFD00214FF48010FFF737FD56E0FC
:10117000CA48844209D101214805FFF72FFD00210B
:101180004FF40010FFF72AFD49E0C548844208D11A
:1011900001214020FFF72FFD00214020FFF72BFD0C
:1011A0003DE0C048844208D101218020FFF723FDA3
:1011B00000218020FFF71FFD31E0BB48844208D1A9
:1011C00001218015FFF717FD0021A015FFF713FD82
:1011D00025E0B648844209D101210804FFF7FEFC4E
:1011E00000214FF48030FFF7F9FC18E0B04884424A
:1011F00009D101214804FFF7F1FC00214FF4003030
:10120000FFF7ECFC0BE0AB48844208D101218804D5
:10121000FFF7E4FC00214FF48020FFF7DFFC10BD56
:1012200000220288944B98420ED0994B98420BD0E2
:10123000B0F1804F08D0914B984205D0904B984226
:1012400002D0904B984204D14FF68F731A404B88CE
:101250001A438D4B984207D08C4B984204D04FF6DE
:10126000FF431A40CB881A4302808B8883850B8802
:101270000385814B98420BD0854B984208D08B4B0D
:10128000984205D08A4B984202D08A4B984201D1AD
:101290000B7A038601238382704770B500240022F5
:1012A0000023058C4FF6FE7635400584028C83883A
:1012B000048B4FF68F752C40B51E2C400D882C43A7
:1012C000751E2A400D892A434D882A436A4DA8423B
:1012D0000BD06F4DA84208D0744DA84205D0744D74
:1012E000A84202D0734DA84213D14FF6F7752A4099
:1012F0004D892A434FF6FB752A408D882A434FF6C5
:10130000FF652B404FF6FF552B408D892B43CD8930
:101310002B4383800483CD888586028470BD70B59D
:10132000002400220023058C4FF6EF76354005841B
:10133000028C8388048B48F6FF752C404FF6FF45DE
:101340002C400D884FF6FF7606EA05252C434FF614
:10135000DF752A400D8906EA05152A434D8806EAFD
:1013600005152A43444DA84202D0494DA8421DD13B
:101370004FF67F752A404D894FF6FF7606EA051530
:101380002A434FF6BF752A408D8806EA05152A4381
:101390004FF6FF352B404FF2FF752B408D8906EA43
:1013A00085052B43CD8906EA85052B43838004837D
:1013B000CD880587028470BD70B50024002200230B
:1013C000058C4FF6FF6635400584028C8388848B3C
:1013D0004FF68F752C404FF6FC752C400D882C4332
:1013E0004FF6FF552A400D894FF6FF7606EA052590
:1013F0002A434D8806EA05252A431F4DA84202D0FC
:10140000234DA8421DD14FF2FF752A404D894FF65A
:10141000FF7606EA05252A434FF6FF352A408D88D8
:1014200006EA05252A434EF6FF752B404DF6FF755B
:101430002B408D8906EA05152B43CD8906EA051553
:101440002B4383808483CD888587028470BD70B5EB
:10145000002200230024058C4EF6FF7635400584DB
:10146000038C8488828B48F6FF752A404FF6FF452F
:101470002A400D8820E00000002C014000040040BC
:1014800000080040000C0040001000400014004024
:1014900000340140004C0140005001400054014024
:1014A00000180040001C00400020004000400140A7
:1014B00000440140004801404FF6FF7606EA05254A
:1014C0002A434DF6FF752B400D8906EA05352B435F
:1014D0004D8806EA05352B43FA4DA84202D0FA4D55
:1014E000A84208D14BF6FF752C408D894FF6FF7648
:1014F00006EA85152C4384808283CD88A0F840506D
:10150000038470BD828B4FF2FF331A408283828B3B
:101510004FF6FF7303EA01231A4382837047F0B545
:101520000C461546002200210026078C4EF6FF7C53
:1015300007EA0C070784828B018C4FF6FF7707EAD6
:10154000043640F6FF473A404FF6FF7707EA052793
:101550003A434FF6FF7707EA03373A43D94FB84289
:101560000ED0D94FB8420BD0B0F1804F08D0D74F32
:10157000B84205D0D64FB84202D0D64FB84206D1B5
:101580004DF6FF77394046F48057394305E047F67A
:10159000FF57394044F48057394382830184F0BDBA
:1015A000828B4FF6F3731A408283828B0A438283C5
:1015B0007047F0B50C461546002200210026078C26
:1015C0004FF6FF6C07EA0C070784828B018C4FF6FD
:1015D000FF7707EA04264FF60C773A404FF6FF777D
:1015E00007EA03172F433A43B64FB8420ED0B64F1F
:1015F000B8420BD0B0F1804F08D0B44FB84205D0FC
:10160000B34FB84202D0B34FB84206D14FF6FF579E
:10161000394046F48077394305E04FF2FF573940AF
:1016200044F48077394382830184F0BD028B4FF20A
:10163000FF331A400283028B4FF6FF7303EA012344
:101640001A4302837047F0B50C461546002200216C
:101650000026078C4FF6EF7C07EA0C070784028B05
:10166000018C4FF6FF7707EA041640F6FF473A4031
:101670004FF6FF7707EA03373A434FF6FF7707EA5B
:1016800005273A438F4FB8420ED08F4FB8420BD048
:10169000B0F1804F08D08D4FB84205D08C4FB84282
:1016A00002D08C4FB84206D14FF6DF77394046F072
:1016B0001007394305E04FF65F77394044F01007D3
:1016C000394302830184F0BD028B4FF6F3731A4055
:1016D0000283028B0A4302837047F0B50C4615461D
:1016E00000220021068C4FF6FE773E400684028BD6
:1016F000018C4FF60C7632407E1C06EA03162E4310
:101700003243704EB0420ED06F4EB0420BD0B0F1AB
:10171000804F08D06D4EB04205D06D4EB04202D021
:101720006C4EB04206D14FF6FD76314044F00106D2
:10173000314305E04FF6F576314044F00106314380
:1017400002830184F0BD70B505460C465D488542B4
:101750000ED05D4885420BD0B5F1804F08D05B4874
:10176000854205D05A48854202D05A48854200D168
:1017700000E000BF208850B92389A28861882846EC
:10178000FFF7ABFFE1882846FFF79EFF25E02088A2
:1017900004280AD12389A28861882846FFF753FFCD
:1017A000E1882846FFF742FF17E0208808280AD181
:1017B0002389A28861882846FFF7FBFEE188284636
:1017C000FFF7EEFE09E02389A28861882846FFF72B
:1017D000A6FEE1882846FFF795FE70BD2DE9F04191
:1017E00005460C4600260127608808B9022600E05D
:1017F0000026A088012801D1022700E001272088C7
:10180000A0B92389A28861882846FFF766FFE1888E
:101810002846FFF759FF23893A4631462846FFF705
:1018200012FFE1882846FFF701FF13E02389A28811
:1018300061882846FFF707FFE1882846FFF7F6FE94
:1018400023893A4631462846FFF747FFE188284674
:10185000FFF73AFFBDE8F0810A884B881A438B886E
:101860001A43CB881A430B891A434B891A438B8935
:101870001A43A0F8442070474FF6FF718180002181
:101880000180C18041800172704700210180418048
:101890008180C180018141818181C18170470021A6
:1018A00001804180012181800021C1800181704738
:1018B0000021018041808180C1800181418181813D
:1018C00070470000002C014000340140000400403B
:1018D00000080040000C004021B1028842F00102E3
:1018E000028004E002884FF6FE731A4002807047BF
:1018F00031B1B0F8442042F40042A0F8442005E0A1
:10190000B0F84420C2F30E02A0F8442070471AB188
:1019100083890B43838102E083898B4383817047F2
:101920008182704741EA0203A0F8483070471AB13B
:1019300083890B43838102E083898B4383817047D2
:1019400001894FF6F8721140018170470A46002163
:1019500001894FF68F73194011430181704730B5EB
:1019600004460D4629462046FFF7F0FF208940F047
:101970000700208130BD2DE9F04104460D46164692
:101980001F46602D06D13B46012231462046FFF717
:101990005AFE05E03B46012231462046FFF79DFEF8
:1019A00029462046FFF7D2FF208940F0070020811A
:1019B000BDE8F08130B50C4600210189C9B24FF66F
:1019C000FF7505EA0325154325432943018130BDF1
:1019D0002DE9F04105460E46174698460024434639
:1019E0003A4631462846FFF7E5FF2C894FF6F87056
:1019F000044044F007044FF68F70044044F0700434
:101A00002C81BDE8F081F0B504460D4616461F4610
:101A10003B46324629462046FFF7CCFF208940F45A
:101A200080402081F0BD0185828270470A460021F6
:101A300001884FF68F731940114301807047F0B54C
:101A40000C4615461E460021002200230189028B08
:101A5000038C4FF6F877394021434FF6FC473A4064
:101A600040F201173A434FF6DD773B404FF6FF77E0
:101A700007EA06172F433B43018102830384F0BD2D
:101A80000A460021018B4FF68F73194011430183E1
:101A900070470A460021018B48F6FF7319404FF644
:101AA000FF7303EA02231943018370470A460021AA
:101AB000818B4FF68F7319401143818370470A461B
:101AC0000021818B48F6FF7319404FF6FF7303EA3C
:101AD000022319438183704721B1028842F08002BA
:101AE000028004E002884FF67F731A40028070473C
:101AF00021B1828842F00402828004E082884FF69D
:101B0000FB731A408280704721B1828842F008023C
:101B1000828004E082884FF6F7731A408280704713
:101B200021B1828842F00102828004E082884FF66F
:101B3000FE731A40828070470A460021018B4FF6DF
:101B4000F77319401143018370470A460021018B46
:101B50004FF2FF7319404FF6FF7303EA0223194354
:101B6000018370470A460021818B4FF6F7731940B5
:101B70001143818370470A460021818B4FF2FF7326
:101B800019404FF6FF7303EA02231943818370471C
:101B90000A460021018B4FF6FB7319401143018364
:101BA00070470A460021018B4FF6FF3319404FF66C
:101BB000FF7303EA02231943018370470A46002199
:101BC000818B4FF6FB7319401143818370470A469E
:101BD0000021818B4FF6FF3319404FF6FF7303EA64
:101BE00002231943818370470A460021018B4FF677
:101BF0007F7319401143018370470A460021018B0E
:101C0000C1F30E014FF6FF7303EA02231943018368
:101C100070470A460021818B4FF67F7319401143AC
:101C2000818370470A460021818BC1F30E014FF674
:101C3000FF7303EA02231943818370470A46002198
:101C4000018C4FF6FD7319401143018470470A4619
:101C50000021018C4FF6F77319401143018470473E
:101C60000A460021018C4FF6DF7319404FF6FF73CF
:101C700003EA02131943018470470A460021018CCC
:101C80004FF67F7319404FF6FF7303EA02131943AF
:101C9000018470470A460021018C4FF6FF5319401A
:101CA0004FF6FF7303EA02231943018470470A4683
:101CB0000021018C4FF2FF7319404FF6FF7303EAC6
:101CC00002231943018470470A460021018C4DF616
:101CD000FF7319404FF6FF7303EA0233194301847F
:101CE000704730B5002301248C40A3B2048C9C4380
:101CF0000484048C02FA01F5ADB22C43048430BD97
:101D000030B5002304248C40A3B2048C9C4304848B
:101D1000048C02FA01F5ADB22C43048430BD70B5D9
:101D20000346002000241846183001258D40ACB22F
:101D30001D8CA5431D8409B1082909D100EB610060
:101D4000056825F0700505600568154305600EE01F
:101D50000D1FC5F34E052844056825F4E0450560D0
:101D600005684FF6FF7606EA02263543056070BD2A
:101D700021B1028842F00202028004E002884FF69C
:101D8000FD731A400280704721B1028842F00402BC
:101D9000028004E002884FF6FB731A40028070470D
:101DA00021B1828842F08002828004E082884FF66E
:101DB0007F731A408280704702884FF6F7731A408B
:101DC000028002880A430280704782884FF68F7330
:101DD0001A40828082880A438280704702894FF6C7
:101DE000F8731A40028102890A430281704702890E
:101DF0004FF67F731A40028102890A4302817047BD
:101E0000818470478185704781867047018770475C
:101E100081877047A0F84010704702884FF6FF4353
:101E20001A40028002880A43028070470146888E69
:101E300070470146088F70470146888F70470146FA
:101E4000B1F8400070470146888C70470146088D04
:101E5000704702460020138A0B400BB1012000E0BE
:101E600000207047CA430282704730B50246002006
:101E700000230024158A05EA0103958905EA010477
:101E800013B10CB1012000E0002030BDCA43028232
:101E9000704700004FF0E021096921F004014FF084
:101EA000E0221161C21700EB5272C2F3C7022B4B42
:101EB0001A701946097801EB4102C2EBC1114FF6C5
:101EC000FF7202EAC101264A118070470146234A87
:101ED00012784A434FF0E0235A6100229A611A4671
:101EE000126942F001021A6100BF4FF0E02210694E
:101EF00000F001021AB100F48032002AF5D04FF050
:101F0000E022126922F001024FF0E0231A61002260
:101F10009A6170470146124A12884A434FF0E02303
:101F20005A6100229A611A46126942F001021A614E
:101F300000BF4FF0E022106900F001021AB100F476
:101F40008032002AF5D04FF0E022126922F001021F
:101F50004FF0E0231A6100229A61704730000020A0
:101F600032000020B94A11880A131303C1F3032277
:101F700003EB0223C1F3031203EB021201F00F0380
:101F80001A4491B24D22027043224270552282704F
:101F90004322C27061220271702242713A22827120
:101FA0004FF47A7291FBF2F232B14FF47A7291FBF4
:101FB000F2F23032C27101E02022C2714FF47A7223
:101FC00091FBF2F302FB1312642392FBF3F2303223
:101FD0000272642291FBF2F302FB13120A2392FBBA
:101FE000F3F2303242720A2291FBF2F302FB131237
:101FF000303282724B22C27262220273704770B515
:102000000446934805682A4692A1204601F0D0FD77
:1020100070BD934A0A4002438D4B08331A607047E3
:1020200010B504462046FEF735FA10BDF8B5044653
:102030000D4617461E463046FFF7F2FF8DF800703A
:102040008DF801408DF8025001208DF8030068469C
:10205000FEF725FAF8BD00B5002082490861C86086
:102060001420486100208861C8610846006840F07B
:1020700001000860084640687B490840794948608B
:1020800008460068794908407649086008460068B3
:1020900020F4802008600846406820F4FE00486074
:1020A0000020886000214FF00060FFF7B2FF00BD04
:1020B00010B567481030006840F0040064491031E2
:1020C00008606848C06940F080506649C861684847
:1020D000406840F48070664948600846006840F0F7
:1020E000040008600846006840F002000860FEF73F
:1020F0006FF810BD5F4856490C3108607047594968
:10210000896941F00101574A91615B49496821F0B1
:10211000E061594A51601146496841EA00615160E5
:10212000704730B504460025FFF795FF4D4800681D
:1021300040F480304B49086000BF4A480068400CBA
:102140000028FAD04FF4806046494860A01EC4B20F
:102150000846406840EA844048600846406840F4C9
:10216000803048604548006840F0320043490860CC
:102170003C48006840F080703A49086000BF394828
:102180000068400E0028FAD03648406840F002004F
:102190003449486005E033484068C0F3870505F0DE
:1021A0000305022DF7D130BD01460A2091FBF0F264
:1021B00000FB12100A2291FBF2F240EA0210C0B2B8
:1021C0007047014601F00F000A1102EB820200EB9A
:1021D0004200C0B2704701464FF47A7091FBF0F0B4
:1021E00000034FF47A7291FBF2F302FB13126423A3
:1021F00092FBF3F240EA02201A4691FBF2F302FB53
:1022000013120A2392FBF3F240EA02101A4691FBE2
:10221000F2F302FB1312104380B270470146081319
:102220004FF47A725043C1F3032202EBC20303EB73
:10223000021200EB8200C1F3031202EB820200EBF8
:10224000420001F00F02104480B27047E0F7FF1F18
:1022500000ED00E04350552049443A2530385800FD
:1022600080FFFF1F001002400000FFF8FFFFF6FE96
:10227000007000400400FA05000001400020024008
:10228000014600BF704700BF5C4A128802F040025E
:10229000002AF9D0C2B2594B1B1D1A80704710B5E5
:1022A00086B0044655480C30008840F4807053498D
:1022B0000C3108800846008840F0200008804FF468
:1022C000A063252203210846FFF7B0FE012144F256
:1022D0000400FEF769FC4948FEF7CAFC4FF40070A1
:1022E000ADF8140003208DF8160018208DF81700A3
:1022F00005A94348FEF79CF94FF48060ADF814003F
:1023000004208DF8170005A93D48FEF791F90194C6
:102310000020ADF80800ADF80A00ADF80C00ADF8EB
:1023200010000C20ADF80E0001A93448FEF7E3FCC4
:10233000012240F225513148FEF775FD01212F4859
:10234000FEF765FD06B010BD10B540F225512B48D3
:10235000FEF74EFE002850D02848FEF7C9FDC4B253
:102360002848008800F40040002846D1254800880D
:1023700000F4804038B30A2C1ED00D202149098872
:10238000C1F30D01204A50541E480088401C1D49CD
:10239000088008460088C0F30D0011460C54194807
:1023A0000088401C17490880084600884BF6FF71DA
:1023B00008401449088020E01248008840F400409A
:1023C0001049088019E00D2C06D10E48008840F411
:1023D00080400C49088010E00A480088C0F30D00D6
:1023E00009490C5407480088401C064908800846E3
:1023F00000883E2801DD0020088010BD0038014023
:102400000008014038000020B80800204FF4A06008
:10241000FFF706FE4820FFF73DFD00F0FFFC01F04E
:10242000DDF900F08CFD00F006FE01F07BFB64207E
:10243000FFF770FD00F0E1FD3220FFF76BFD4FF676
:10244000FF71084601F08AFB6420FFF763FD10E08E
:1024500001F00FFA00210748006800F02EF9064845
:10246000007820B100200449087000F0C6FD01F09A
:1024700085FAEDE79C0800203E0000200246FB485C
:10248000007838B9FA4800681044FA4B1860012007
:10249000F64B1870F6480068F64B1B68984205D357
:1024A0000020F24B18700120087070470020FCE7F4
:1024B00010B50346087808B9002010BDEE48007832
:1024C00038B9EB4800681844EC4C20600120EA4C15
:1024D0002070E7480068E94C2468A04206D3002039
:1024E000E54C2070087001201070E6E70020E4E75A
:1024F0007FB5002001900290039000903224642563
:1025000001208DF80E008DF80200DDA206210020CA
:1025100001F021F8DCA20621382001F01CF8A2E02D
:1025200001AA0DF10E012046FFF7C2FF20B1D8A28B
:102530000021202001F00FF80DF1050201A920462D
:10254000FFF7B6FF20B1D3A20021302001F003F83D
:102550000DF10602511E2046FFF7AAFF20B1CEA2C0
:102560000021402000F0F7FF0DF10702511E204628
:10257000FFF79EFF20B1C9A20021502000F0EBFF21
:1025800002AA511E2046FFF793FF20B1C4A20221E8
:10259000102000F0E0FF0DF1090202A92046FFF72C
:1025A00087FF20B1BFA20221202000F0D4FF0DF14F
:1025B0000A02511E2046FFF77BFF20B1BAA202217A
:1025C000302000F0C8FF0DF10B02511E2046FFF72E
:1025D0006FFF20B1B5A20221402000F0BCFF03AA8A
:1025E000511E2046FFF764FF20B1B1A20221502006
:1025F00000F0B1FF0DF10D0203A92046FFF758FFCF
:1026000020B1ACA20221602000F0A5FF01AA0DF1CB
:102610000D012046FFF74CFF00B125E06A46911CF2
:102620002846FFF745FF20B1A3A20621682000F04D
:1026300092FF0DF1010269462846FFF739FF20B1EC
:102640009EA20621702000F086FF0DF10202511EAD
:102650002846FFF72DFF20B198A20621782000F030
:102660007AFF00F0CAFC5BE700BF7FBD0378303320
:102670000B70437830334B70837830338B70C37872
:102680003033CB70037930330B7100234B718B5C8B
:1026900080338B547047027830320A70427830327F
:1026A0004A70827830328A70C2783032CA700279C9
:1026B00030320A7100224A71704730B589B0044641
:1026C0000D467F480078D0B102247EA2002126204A
:1026D00000F05AFF7DA20221172000F055FF7DA2D5
:1026E0000221532000F050FF7CA20621002000F0C0
:1026F00032FF00207249087001207D4908707D4832
:1027000000687D49B0FBF1F201FB120042F210714A
:10271000B0FBF1F0C0B28DF81C0076480068B0FB49
:10272000F1F201FB12004FF47A71B0FBF1F0C0B28C
:102730008DF81D006F480068B0FBF1F201FB12003C
:102740006421B0FBF1F0C0B28DF81E00694800684A
:10275000B0FBF1F201FB12000A21B0FBF1F08DF8A1
:102760001F0064480068B0FBF1F201FB12008DF815
:102770002000624800686049B0FBF1F201FB1200E2
:1027800042F21071B0FBF1F0C0B28DF814005B485A
:102790000068B0FBF1F201FB12004FF47A71B0FB5C
:1027A000F1F0C0B28DF8150054480068B0FBF1F2AA
:1027B00001FB12006421B0FBF1F0C0B28DF81600ED
:1027C0004E480068B0FBF1F201FB12000A21B0FB99
:1027D000F1F08DF8170049480068B0FBF1F201FBF9
:1027E00012008DF81800102C23D2DFE804F022C864
:1027F000FADB08A22222222222B5F9FB238F4048CD
:10280000007848B907A83F490978405C401C07A9EF
:102810003C4A127888540CE039480078012808D1E5
:1028200005A839490978405C401C05A9364A127848
:10283000885401E13248007850B907A83149097835
:10284000405C401CC1B207A82E4A127881540CE0AB
:102850002B480078012808D105A82B490978405C4D
:10286000401C05A9284A12788854E5E03F00002062
:102870000400002040000020440000204800002008
:102880004144463433353100B3F5CABCBBAF000018
:10289000BFB50000CDFE0000B5E70000D7D30000B3
:1028A000BDDF0000B3CF0000CEAA0000C4FA0000D4
:1028B000B7FE0000CEF100002E2020002E00000008
:1028C0003C00002044414338353633004F555441D5
:1028D000000000004F55544200000000202020203E
:1028E000BFB5CDFEBFC6BCBC20202020000000002C
:1028F0003E00002050000020A0860100540000206F
:102900004E0000204C0000204D000020FE480078C2
:1029100028B9FE480078401CFC49087008E0FA48D5
:102920000078012804D1FA480078401CF849087062
:1029300082E0F548007828B9F4480078401CF34953
:10294000087008E0F0480078012804D1F0480078C9
:10295000401CEF4908706FE0EB48007828B9EB485D
:102960000078401EE949087008E0E748007801282F
:1029700004D1E7480078401EE54908705CE0E24871
:10298000007828B9E1480078401EE049087008E066
:10299000DD480078012804D1DD480078401EDC497C
:1029A000087049E0D848007850B907A8D749097895
:1029B000405C401EC1B207A8D44A127881540DE091
:1029C000D1480078012809D105A8D1490978405C8F
:1029D000401EC1B205A8CE4A127881542CE001E015
:1029E0001DE022E0C848007850B907A8C749097817
:1029F000405C401EC1B207A8C44A127881540DE061
:102A0000C1480078012809D105A8C1490978405C6E
:102A1000401EC1B205A8BE4A127881540CE0BD48E0
:102A20000078401CBB49087006E0B748007880F089
:102A30000100B549087000BF00BFB6480078032107
:102A400090FBF1F201FB1200B2490870AF48007828
:102A5000052190FBF1F201FB1200AC490870AC4873
:102A60000078052190FBF1F201FB1200A8490870E3
:102A7000A5480078B0B907A8A4490978405CFF28A8
:102A800004D1092107A8A14A1278815407A89F49B7
:102A90000978405C0A281FD1002007A99B4A1278B8
:102AA000885419E098480078012815D105A898495C
:102AB0000978405CFF2804D1092005A9944A1278BE
:102AC000885405A892490978405C0A2804D100215D
:102AD00005A88F4A12788154002C7DD09DF81C00E7
:102AE00042F2107148439DF81D1001EB4102C2EB08
:102AF000C11100EBC1009DF81E1001EBC10202EBF9
:102B0000011100EB81009DF81F1001EB810100EB2A
:102B100041009DF8201008447F4908609DF814008A
:102B200042F2107148439DF8151001EB4102C2EBCF
:102B3000C11100EBC1019DF8160000EBC00202EBD1
:102B4000001001EB80009DF8171001EB810100EBF4
:102B500041009DF818100844704908606E480068EC
:102B6000B0F5803F03D34FF6FF706B4908606B48A8
:102B70000068B0F5803F03D34FF6FF7067490860E7
:102B8000654800686649B0FBF1F201FB120042F2B1
:102B90001071B0FBF1F0C0B28DF81C005E48006807
:102BA000B0FBF1F201FB12004FF47A71B0FBF1F0CF
:102BB000C0B28DF81D0058480068B0FBF1F201FB6F
:102BC00012006421B0FBF1F0C0B28DF81E00524833
:102BD0000068B0FBF1F200E012E101FB12000A21F3
:102BE000B0FBF1F08DF81F004B480068B0FBF1F22C
:102BF00001FB12008DF82000484800684849B0FBEE
:102C0000F1F201FB120042F21071B0FBF1F0C0B220
:102C10008DF8140041480068B0FBF1F201FB12008E
:102C20004FF47A71B0FBF1F0C0B28DF815003B485B
:102C30000068B0FBF1F201FB12006421B0FBF1F07F
:102C4000C0B28DF8160035480068B0FBF1F201FB08
:102C500012000A21B0FBF1F08DF817002F48006830
:102C6000B0FBF1F201FB12008DF818002648007845
:102C7000002866D101A905A8FFF70DFD01AA0421CE
:102C80004A2000F081FC2148027801A907A8FFF73B
:102C9000EDFC01AA04210F2000F076FC1D4800780D
:102CA00070B90121022000F0DBFE1EA202210F20DC
:102CB00000F051FC1CA20221422000F04CFC37E045
:102CC0001448007801280ED10321022000F0C8FE2C
:102CD00014A202210F2000F03EFC12A202214B2080
:102CE00000F039FC24E00B480078022820D10021B4
:102CF00000F0B6FE0CA20221062000F02CFC0AA275
:102D00000221422012E000004E0000204C00002072
:102D10004D0000204F0000205000002054000020F3
:102D2000A08601002B000000A1C0000000F013FCF1
:102D3000344A128891B2344A128890B200F00EFFE1
:102D40005BE032480078012857D101A907A8FFF7B6
:102D5000A2FC01AA04210F2000F016FC2C480278E6
:102D600001A905A8FFF782FC01AA04214A2000F06E
:102D70000BFC2848007880B90121022000F070FE89
:102D8000AFF2600202210F2000F0E5FBAFF2680213
:102D90000221422000F0DFFB27E01E4800780128D6
:102DA00010D10321022000F05BFEAFF28802022165
:102DB0000F2000F0D0FBAFF2940202214B2000F074
:102DC000CAFB12E01348007802280ED1002100F05F
:102DD00047FEAFF2AC020221062000F0BCFBAFF2CE
:102DE000B8020221422000F0B6FB064A128891B2D6
:102DF000054A128890B200F0B1FE01200649087021
:102E000009B030BD54000020500000204E000020CA
:102E10004D0000204F0000203E00002008B5012199
:102E20000C20FDF7C1FE0420ADF8000002208DF853
:102E3000020010208DF8030069460A48FDF7F8FBF0
:102E40004FF40040ADF8000069460748FDF7F0FB7D
:102E50004FF400410448FDF798FC04210148FDF7B8
:102E600094FC08BD000C01400008014008B5012198
:102E70002820FDF799FE4FF47870ADF8000010207F
:102E80008DF8030003208DF802006946FA48FDF72B
:102E9000CFFB4FF47871F848FDF777FC0420ADF8CC
:102EA00000006946F548FDF7C3FB0421F348FDF730
:102EB0006CFC08BD0022F24B1A60F24BC3F89C2157
:102EC000002116E00022EE4B0C331A6000F0800265
:102ED0001AB101221B1D1A6003E00022E84B1033D7
:102EE0001A600122E64B0C331A60420010464A1C5D
:102EF000D1B20829E6DB70470022E14B1A600122BB
:102F0000E04BC3F89C21002116E00022DC4B0C337F
:102F10001A6000F080021AB101221B1D1A6003E042
:102F20000022D74B10331A600122D54B0C331A60A4
:102F3000420010464A1CD1B20829E6DB704710B5A2
:102F4000FFF794FF0020CE490860CE49C1F89801F0
:102F50006420FEF7DFFF0120C949091D0860142025
:102F6000FEF7D8FFE220FFF7A5FF0520FEF7D2FF0E
:102F70002C20FFF79FFF0520FEF7CCFF2E20FFF748
:102F800099FF0520FEF7C6FF2F20FFF793FF0520CE
:102F9000FEF7C0FF2320FFF78DFF8120FFF78AFF98
:102FA0002820FFF787FFA220FFF784FFC820FFF744
:102FB00081FFA020FFF77EFF4020FFF77BFFAF20BF
:102FC000FFF778FF0120AF49C1F8940110BD30B57B
:102FD00005460C460020AA49086000BF00BF05F165
:102FE000B000FFF767FF102101EB1410FFF762FF3D
:102FF00004F00F00FFF75EFF30BD30B50020A049A0
:103000000860002411E000212046FFF7E0FF0025C2
:1030100007E09D4901EBC501085DFFF76DFF681CE6
:10302000C5B2802DF5DB601CC4B2082CEBDB01209F
:103030009349086030BD30B50020914908600024F4
:103040000CE0002506E000208F4901EBC501085582
:10305000681CC5B2802DF6DB601CC4B2082CF0DB06
:10306000012087490860FFF7C8FF30BDF0B514465E
:1030700000257F2801DC3F2900DDF0BD0023804FC3
:103080003B600B46CF1701EB5777C7F3C702CF174B
:1030900001EB5777FF10A1EBC707FEB20123B34046
:1030A000DDB24CB1784B03EBC0039B5C2B43764FF6
:1030B00007EBC007BB5408E0734B03EBC0039B5CFA
:1030C000AB43714F07EBC007BB5401236C4F3B6010
:1030D00000BFD2E72DE9F04706460F4690469946D5
:1030E000DDF820A034460CE03D4606E05246294675
:1030F0002046FFF7BBFF681CC5B24D45F6DD601CDE
:10310000C4B24445F0DDBDE8F087F8B504460D468D
:1031100016461F4601203B4622462946009020467F
:10312000FFF7D8FF01202B46324629460090204663
:10313000FFF7D0FF01203B4632463946009020463B
:10314000FFF7C8FF01203B46324629460090304633
:10315000FFF7C0FFF8BDF0B5144600257F2802DD5B
:10316000A0F17F03D8B23F2902DDA1F13F03D9B21C
:103170000B46CF1701EB5777C7F3C702CF1701EB09
:103180005777FF10A1EBC707FEB20123B340DDB2B2
:103190004CB13D4B03EBC0039B5C2B433A4F07EB19
:1031A000C007BB5408E0384B03EBC0039B5CAB4348
:1031B000354F07EBC007BB54F0BD38B505460C468C
:1031C00032480078401C3149087031480078A842E4
:1031D00003D130480078A0420DD0002000902D4847
:1031E00000781030C3B22A4802782A48017828486B
:1031F0000078FFF76FFF2548007827490978884253
:103200000ADA0120009004F11000C3B22A462146D8
:103210002846FFF75FFF14E01F4800781B49097834
:10322000B1EB400F0ADA0020009004F11000C3B2A5
:103230002A4621462846FFF74DFF02E000201349A9
:103240000870134805701348047038BD2DE9F04F1D
:1032500080460C4615461E46A346A5F12000C5B281
:10326000002752E00C2E1BD105EB45000B4901EB6A
:10327000800010F8079018E0000C01400014014095
:103280009481214200802142F70800209408002008
:10329000960800209708002095080020E83F0008C5
:1032A000FE4800EB051010F807904FF0000A26E0EA
:1032B00009F0800028B121464046099AFFF7D6FE62
:1032C00009E0099808B9012000E0002002462146E3
:1032D0004046FFF7CBFE4FEA49604FEA1069601C99
:1032E000C4B2A4EB0B00B04205D15C4608F101006A
:1032F00000F0FF0806E00AF1010000F0FF0ABAF151
:10330000080FD5DB00BF781CC7B2B742AADBBDE807
:10331000F08F2DE9F04F07460C4615461E46A34692
:103320004FF0000931E095F800804FF0000A23E0EB
:1033300008F0800028B1324621463846FFF70BFFDF
:1033400008E00EB9012000E0002002462146384680
:10335000FFF701FF4FEA48604FEA1068601CC4B2F3
:10336000A4EB0B00102803D15C46781CC7B206E022
:103370000AF1010000F0FF0ABAF1080FD8DB00BF24
:103380006D1C09F1010000F0FF09B9F1200FCADB43
:10339000BDE8F08F2DE9F04180460D4616461F46E8
:1033A0007F2D01DDBDE8F0813F2E00DDFAE700242E
:1033B00020E0387804EB0411B94A12F81110884261
:1033C00016D1787804EB041102EB41014978884268
:1033D0000ED104EB0410114601EB4000821C434661
:1033E00031462846FFF795FF05F11000C5B203E00E
:1033F000601CC4B2382CDCD300BF00BFD2E7F8B5E4
:1034000007460C4615461E4617E07A2C03DD0024BD
:1034100005F11000C5B23A2D04DD00200446054632
:10342000FFF709FE00973278102329462046FFF760
:103430000DFF04F10800C4B2761C30780028E4D1F6
:10344000F8BDF8B507460C4615461E4617E07A2C1F
:1034500003DD002405F11000C5B23A2D04DD002083
:1034600004460546FFF7E7FD009732780C2329460E
:103470002046FFF7EBFE04F10800C4B2761C30785A
:103480000028E4D1F8BDF8B507460D4616461C469F
:103490001EE07A2D00DDF8BD3A2E00DDFBE7207836
:1034A0007F280ADD2346324629463846FFF772FF59
:1034B000A41C05F11000C5B20AE000972278102381
:1034C00031462846FFF7C2FE05F10800C5B2641C6C
:1034D00020780028DDD100BFDDE72DE9F0438146EB
:1034E0000E4690461F467F2E01DDBDE8F083B8F101
:1034F0003F0F00DDF9E7002428E0002521E0385DDA
:1035000005EB0511664A12F81110884217D1601CAC
:10351000385C05EB051102EB4101497888420ED178
:1035200005EB0510114601EB4000821C4B4641465D
:103530003046FFF7EEFE06F11000C6B203E0681C4D
:10354000C5B2382DDBD300BFA01CC4B2385D002843
:10355000D3D100BFC9E770B504460D461646E8064C
:10356000020EE1B233460120FFF78DFF70BDF0B5CA
:1035700004460D4616461F46E806020EE1B23346E3
:103580003846FFF780FFF0BDF8B507460E461446F3
:10359000002522E0605D80280CDB605D803860558E
:1035A00000200090625DF006010E10233846FFF700
:1035B0004DFE08E001200090625DF006010E102330
:1035C0003846FFF743FE07F10800C7B2782F02DD47
:1035D0000027B01CC6B2681CC5B2605D0028D9D1F6
:1035E000F8BD2DE9FF4F83B0BDF81410BDF80C20D5
:1035F000881A002801DB014600E0414289B20291AD
:10360000BDF81810BDF81020881A002801DB01460B
:1036100000E0414289B201914FF00009BDF8080075
:10362000BDF8041088420DDA4FF0010904A903A87F
:1036300000F0CDFC06A905A800F0C9FC01A902A86C
:1036400000F0C5FCBDF81400BDF80C10401A0028AD
:1036500001DD012001E04FF0FF308246BDF8180087
:10366000BDF81010401A002801DD012001E04FF0E4
:10367000FF308346BDF80C40BDF81060BDF8040073
:103680004700BDF80400BDF80810401A4FEA400892
:10369000BDF80400BDF8081004E000005C44000818
:1036A00058000020C1EB4005B9F1000F11D00BE02C
:1036B000002D01DA3D4401E05E444544E1B2F0B240
:1036C000109AFFF7D3FC5444BDF814008442EFD1A4
:1036D00010E00BE0002D01DA3D4401E05E4445447A
:1036E000F1B2E0B2109AFFF7C1FC5444BDF81400E7
:1036F0008442EFD107B0BDE8F08F2DE9F8430546CD
:103700000E4617469846089C33463A4631462846A8
:103710000094FFF766FF43462A4631462846009448
:10372000FFF75FFF43463A46414628460094FFF7BD
:1037300058FF43463A46314638460094FFF751FF5A
:10374000BDE8F8832DE9FF4F81B0834617469946BF
:10375000DDF838A000243D467800C0F10306B9F139
:10376000000F1FD01BE0A0460AE01FFA88F3A2B2A8
:10377000CDF800A05846029900F0E7FB08F10108D7
:10378000A845F2DD002E04DA042000FB0460861D4B
:1037900004E0601B042101FB00666D1E641CAC424A
:1037A000E1DD17E014E0ABB2A2B2CDF800A05846BC
:1037B000029900F0CAFB002E04DA042000FB04602A
:1037C000861D04E0601B042101FB00666D1E641C65
:1037D000AC42E8DD05B0BDE8F08F000000B585B073
:1037E00001210820FDF7E0F901210220FDF7E9F9A8
:1037F00048208DF813004FF47840ADF810000120F8
:103800008DF8120004A96248FCF712FF6148FDF729
:1038100033FC4720ADF8040040F2E730ADF8080073
:103820000020ADF80A00ADF8060001A95948FDF7DF
:10383000F7FC012241215748FEF769F8012155485C
:10384000FEF74AF81D208DF8000001208DF80300D6
:103850008DF801008DF802006846FCF720FE05B0E7
:1038600000BD4B4908310968C1F3CF2161F01F0049
:10387000704700B5FFF7F5FFC2434749096882EA80
:103880000100104045490860434802604448006810
:1038900020B9444800680A30434908603F4800683E
:1038A00010B101203E4908603D48006890B33D4892
:1038B00000683D49096888422CD93A48006810F1EF
:1038C0000A0F27D234480068042812D004DC0128EB
:1038D00007D0022819D108E008280ED0102814D1EA
:1038E0000FE001203149086013E002202F490860F1
:1038F0000FE003202D4908600BE004202B490860ED
:1039000007E005202949086003E0002027490860F6
:1039100000BF00BF26480068B0F57A7F2BD340F285
:103920009E20234908601C480068042812D004DC4B
:10393000012807D0022819D108E008280ED0102845
:1039400014D10FE00B201949086013E00C2017492F
:1039500008600FE00D20154908600BE00E201349A8
:10396000086007E00F201149086003E000200F49BC
:10397000086000BF00BF0D48006800BD0B4800682C
:1039800020B100200649086008490860704700001F
:10399000000C014000040040B0080020AC080020EA
:1039A000B408002098080020A80800209C080020E7
:1039B000A40800207FB505460C4601210420FDF730
:1039C00000F9ADF80850ADF804400020ADF80A0049
:1039D000ADF8060001A91348FDF722FC01224121A0
:1039E0001048FDF794FF1E208DF8000000208DF890
:1039F000010003208DF8020001208DF803006846C5
:103A0000FCF74DFD01210748FDF766FF7FBD10B5AE
:103A100001210448FEF729FA18B101210148FEF7F7
:103A200035FA10BD0008004008B501211020FDF74F
:103A3000BBF84FF47C50ADF8000010208DF8030067
:103A400003208DF8020069464F48FCF7F1FD4FF462
:103A500000514D48FCF79BFE01204C49086008BD11
:103A600070B505460E46002401204849083108601B
:103A70000420FEF72BFA00204549C1F8AC01434968
:103A80000C31086000BF21E005F08000802804D1DF
:103A900001203E49091F086003E000203B49091F3F
:103AA00008600420FEF712FA012038490C31086042
:103AB0000420FEF70BFA6806050E00203449C1F811
:103AC000B0010420FEF702FA601CC4B2082CDBDB54
:103AD000002424E006F40040B0F5004F04D101209A
:103AE0002A49091F086003E000202849091F0860CF
:103AF0000420FEF7EBF9012024490C310860042072
:103B0000FEF7E4F94FF6FF7000EA46060020204970
:103B1000C1F8B0010420FEF7D9F9601CC4B2102C22
:103B2000D8DB70BD10B500201849091D08600120C0
:103B30001749C1F8A401FFF777FF01212820FFF7FB
:103B40008FFF03212020FFF78BFF01213820FFF793
:103B500087FF01210220FFF783FF10BD70B50446E7
:103B60000D4621461820FFF77BFF29461920FFF755
:103B700077FF0020054908600420FEF7A7F901201F
:103B80000349C1F8A40170BD00100140A401224204
:103B900000002242704700000FB4044910B503AA88
:103BA000029800F085F910BC5DF814FB3400002089
:103BB0000FB41CB5074B06AA7B44694600900598D4
:103BC00000F05DF90020694600F06CF91CBC5DF85E
:103BD00014FB0000E902000070B504468569006826
:103BE000C10601D5302600E02026C00707D070BDF1
:103BF000D4E9012130469047206A401C20626D1EA6
:103C0000F6D570BD70B5044685690078C00707D148
:103C100070BDD4E9012120209047206A401C206219
:103C20006D1EF6D570BD000070B504460D462146E8
:103C30001068AFF300802188090502D50F4A7A4445
:103C400002E00E4A7A440E32002104F1240305E01A
:103C500000F00F060009965D5E54491C0028F7D15C
:103C600020780023000704D5702D02D009B102236B
:103C700011322046BDE8704000F0A2B80A0E0000E4
:103C80002DE9F05F894604464FF0000ADFF824B1C1
:103C9000FB44C0F820A02046E168884700287DD07A
:103CA000252806D0D4E901219047206A401C2062D3
:103CB000F1E700255F462046E16888472028064650
:103CC00007DB312E05D2B81910F8200C08B10543D6
:103CD000F1E7A80701D525F00405C4F81CA00027CA
:103CE000C4F818A02A2E09D0304600F027F938B3BE
:103CF00004EB8708303EC8F8186019E059F8041B37
:103D0000204604EB87029161E1688847012F06464F
:103D100018D1E069002820DA25F020051DE0D8F848
:103D2000180000EB800006EB40003038C8F818009F
:103D30002046E1688847064600F000F90028EED1E9
:103D4000012F0AD02E2E08D12046E16888477F1C1B
:103D50000646022F45F02005C4DBA069002803DADF
:103D6000404245F00105A061E80701D025F01005AB
:103D7000A6B1A6F14100192802D8203645F4006505
:103D80004A463146204625604D46FCF709FA60B1A7
:103D9000012807D0ED1D25F0070000E007E000F145
:103DA000080978E705F1040975E730467AE7206AE3
:103DB000BDE8F09FE00D0000704770477047704706
:103DC0002DE9F0470D4699469246044600F1240835
:103DD0000168880604D5E06921F01001216000E047
:103DE0000120A84201DD471B00E00027A1697A19E4
:103DF00002EB0900081AA0612078C00602D4204610
:103E0000FFF7EAFE002608E0D4E901211AF80600CF
:103E10009047206A401C761C20624E45F4DB2078D7
:103E2000C0060AD52046FFF7D7FE06E0D4E90121F7
:103E300030209047206A401C2062381EA7F10107FD
:103E4000F4DC07E0D4E9012118F805009047206A66
:103E5000401C2062281EA5F10105F3DC2046FFF777
:103E6000D1FE2078000602D50220BDE8F0870120AF
:103E7000FBE7000001694A1C02610878704700B541
:103E80008FB0CDE901310021059105497944CDE993
:103E9000031011466846FFF7F3FE0FB000BD0000A7
:103EA000E5FFFFFF0A6802F8010B0A607047000097
:103EB000074B70B50D467B44FFF7E1FF04462846EB
:103EC00000F008F810B14FF0FF3070BD204670BD13
:103ED000CDE3FFFF007B00F080007047754600F0E7
:103EE00029F8AE4605006946534620F0070085468E
:103EF00018B020B5FCF7BCFABDE820404FF0000632
:103F00004FF000074FF000084FF0000B21F00701C1
:103F1000AC46ACE8C009ACE8C009ACE8C009ACE804
:103F2000C0098D4670470446AFF300802046FCF779
:103F300049F9000000487047F80C002030380A2882
:103F400001D201207047002070472DE9F04104465E
:103F50000D4616461F46DDF81880EA19D1B2A2199F
:103F6000D0B24246FFF782F8EA19D1B2A21BD0B212
:103F70004246FFF77BF8EA1BD1B2A219D0B2424603
:103F8000FFF774F8EA1BD1B2A21BD0B24246FFF78A
:103F90006DF8AA19D1B2E219D0B24246FFF766F81D
:103FA000AA19D1B2E21BD0B24246FFF75FF8AA1BB2
:103FB000D1B2E219D0B24246FFF758F8AA1BD1B2EB
:103FC000E21BD0B24246FFF751F8BDE8F08102880B
:103FD0000B885A4002800A8803885A400A80028867
:103FE0000B885A400280704700000000000000006B
:103FF00000000000000000003F4000000000000042
:1040000000003000400030004000000009000BC0FC
:104010003D000BC03D00090018C024407FE0224055
:1040200031800000180024C01B000D803240018048
:1040300003801C4027401C800740004010006000A7
:1040400000000000000000000000000000001F80D1
:10405000204040200000402020401F800000000041
:10406000090006001F80060009000000040004008B
:104070003F80040004000000001000600000000009
:10408000000000000400040004000400040000001C
:10409000000000400000000000000000002001C0FF
:1040A00006003800400000001F80204020402040D3
:1040B0001F800000000010403FC0004000000000D2
:1040C00018C02140224024401840000010802040A9
:1040D000244024401B80000002000D0011003FC05E
:1040E000014000003C802440244024402380000004
:1040F0001F80244024403440038000003000200012
:1041000027C03800200000001B80244024402440A9
:104110001B8000001C0022C0224022401F800000A3
:104120000000000008400000000000000000000047
:104130000460000000000000000004000A001100FC
:104140002080404009000900090009000900000022
:1041500000004040208011000A00040018002000E8
:1041600023402400180000001F80204027402940E1
:104170001F400000004007C039000F0001C0004090
:1041800020403FC0244024401B8000001F8020406E
:10419000204020403080000020403FC02040204090
:1041A0001F80000020403FC024402E4030C000004F
:1041B00020403FC024402E00300000000F0010803F
:1041C000204022403380020020403FC00400040011
:1041D0003FC02040204020403FC020402040000001
:1041E0000060202020203FC02000200020403FC051
:1041F00024400B0030C0204020403FC02040004001
:10420000004000C03FC03C0003C03C003FC0000075
:1042100020403FC00C4023003FC020001F802040B2
:10422000204020401F80000020403FC02440240048
:10423000180000001F802140214020E01FA0000046
:1042400020403FC02440260019C0004018C0244030
:104250002440224031800000300020403FC02040F8
:104260003000000020003F80004000403F802000E0
:1042700020003E0001C0070038002000380007C0C1
:104280003C0007C038000000204039C0060039C09B
:10429000204000002000384007C0384020000000C7
:1042A000304021C02640384020C0000000000000FF
:1042B0007FE0402040200000000070000C000380E0
:1042C000004000000000402040207FE0000000008F
:1042D000000020004000200000000000001000103E
:1042E000001000100010001000000000400000004E
:1042F00000000000000002800540054003C00040AF
:1043000020003FC004400440038000000000038000
:1043100004400440064000000000038004402440A4
:104320003FC00040000003800540054003400000FE
:10433000000004401FC0244024402000000002E090
:10434000055005500650042020403FC004400400A2
:1043500003C000400000044027C0004000000000EF
:1043600000100010041027E00000000020403FC0B3
:104370000140070004C00440204020403FC00040EE
:104380000040000007C0040007C0040003C0000094
:10439000044007C00440040003C000400000038044
:1043A0000440044003800000041007F0045004405F
:1043B00003800000000003800440045007F0001058
:1043C000044007C002400400040000000000064052
:1043D0000540054004C00000000004001F800440A8
:1043E00000400000040007800040044007C0004077
:1043F0000400070004C0018006000400060001C09C
:10440000070001C006000000044006C0010006C00D
:10441000044000000410071004E0018006000400BE
:104420000000044005C006400440000000000000F9
:1044300004007BE040200000000000000000FFF0CE
:1044400000000000000040207BE0040000000000AD
:1044500040008000400020002000400000000000DC
:10446000000000000000000000000000000000004C
:1044700000001FCC000C000000000000000008003D
:10448000300060000800300060000000022003FCE3
:104490001E20022003FC1E200220000000000E1837
:1044A00011043FFF10840C78000000000F001084FE
:1044B0000F3800C0077818840078000000780F8457
:1044C00010C411240E9800E400840008080068005D
:1044D000700000000000000000000000000000006C
:1044E000000007E01818200440020000000040020D
:1044F0002004181807E000000000000002400240FD
:1045000001800FF001800240024000000080008026
:1045100000800FF800800080008000000001000D86
:10452000000E0000000000000000000000000080FD
:104530000080008000800080008000800000000C6F
:10454000000C000000000000000000000000000659
:10455000001800600180060018002000000007F02D
:10456000080810041004080807F000000000080400
:1045700008041FFC000400040000000000000E0CF2
:1045800010141024104411840E0C000000000C18AC
:1045900010041104110412880C700000000000E0E7
:1045A0000320042408241FFC0024000000001F989E
:1045B000108411041104108810700000000007F02E
:1045C00008881104110418880070000000001C0005
:1045D000100010FC13001C001000000000000E383A
:1045E00011441084108411440E38000000000700AC
:1045F000088C10441044088807F0000000000000F8
:104600000000030C030C000000000000000000008C
:104610000001010600000000000000000000008012
:1046200001400220041008081004000002200220AB
:1046300002200220022002200220000000001004BC
:1046400008080410022001400080000000000E0055
:104650001200100C106C10800F00000003E00C180A
:1046600013E4142417C4082807D000000004003CF9
:1046700003C41C40074000E4001C000410041FFC9D
:104680001104110411040E880070000003E00C18DE
:1046900010041004100410081C10000010041FFC6B
:1046A000100410041004080807F0000010041FFC98
:1046B0001104110417C410040818000010041FFC92
:1046C0001104110017C010000800000003E00C18CE
:1046D0001004100410441C780040000010041FFC5B
:1046E00010840080008010841FFC1004000010045F
:1046F00010041FFC1004100400000000000300015F
:10470000100110011FFE10001000000010041FFC1B
:10471000110403801464181C1004000010041FFC12
:104720001004000400040004000C000010041FFC2E
:104730001F0000FC1F001FFC1004000010041FFCE1
:104740000C04030000E010181FFC100007F008081C
:10475000100410041004080807F0000010041FFCE7
:1047600010841080108010800F00000007F00818DF
:1047700010241024101C080A07F2000010041FFC6B
:104780001104110011C011300E0C000400000E1CA9
:1047900011041084108410441C380000180010000C
:1047A00010041FFC100410001800000010001FF877
:1047B00010040004000410041FF8100010001E0074
:1047C00011E0001C007013801C0010001FC0103C82
:1047D00000E01F0000E0103C1FC000001004180C97
:1047E000163401C001C01634180C100410001C004F
:1047F000130400FC13041C00100000000804101C2B
:104800001064108413041C04101800000000000041
:1048100000007FFE40024002400200000000300025
:104820000C0003800060001C000300000000400238
:10483000400240027FFE0000000000000000000077
:104840002000400040004000200000000001000166
:104850000001000100010001000100010000400012
:104860004000200000000000000000000000009850
:10487000012401440144014400FC000410001FFC19
:10488000008801040104008800700000000000702E
:104890000088010401040104008800000000007089
:1048A00000880104010411081FFC0004000000F846
:1048B000014401440144014400C800000000010417
:1048C00001040FFC1104110411001800000000D6AF
:1048D00001290129012901C90106000010041FFC5A
:1048E000008401000100010400FC00040000010438
:1048F000190419FC0004000400000000000000037B
:1049000000010101190119FE0000000010041FFC44
:104910000024004001B4010C010400000000100458
:1049200010041FFC0004000400000000010401FC4E
:104930000104010001FC0104010000FC010401FC70
:10494000008401000100010400FC0004000000F8E4
:10495000010401040104010400F80000010101FF49
:104960000085010401040088007000000000007050
:10497000008801040104010501FF00010104010494
:1049800001FC00840104010001800000000000CC53
:1049900001240124012401240198000000000100E9
:1049A000010007F80104010400000000010001F803
:1049B000000400040004010801FC0004010001805F
:1049C0000170000C001001600180010001F0010C79
:1049D000003001C00030010C01F0010000000104B2
:1049E000018C00740170018C01040000010101813F
:1049F0000171000E001801600180010000000184B7
:104A0000010C013401440184010C0000000000008D
:104A10000000000001003EFC4002400200000000D7
:104A200000000000FFFF0000000000000000400246
:104A300040023EFC01000000000000000000600099
:104A400080008000400040002000200030313233E0
:104A500034353637383941424344454640305800B2
:104A600030313233343536373839616263646566E4
:104A70004030780004000008000000000000000240
:104A80000001000010000000A84A000800000020FB
:104A9000B8080000280100089C510008B808002050
:104AA000A00A0000840100089184A24A0468090158
:104AB000020304060708090C6910C502040608026F
:104AC0001101120123FFFF29041CD7D3010E4A4113
:104AD000021702410147FE45124912511A61163A66
:104AE000033A13CDFE1202101A041FF814A214D4B4
:104AF0001788149514E2FE8411C85038302410C26F
:104B0000130122071BBFB522181B0C3FF022022AFB
:104B1000C42AA82A92AA817FFE2AA02A902A882F36
:104B200094622622B023B5E74D1FE01240024DFFEC
:104B3000FC124202153FE21002420E1CB1E3014595
:104B40001C0FFFF09D20154FC14AA24A944A887F4E
:104B5000F44A844A824A82DFC34802100CD0AF086C
:104B60004008420881FFFE09180B1021FFE22ABC11
:104B7000AAA07FA07046BA6AA9208E14CABD0818E0
:104B80001C08040906090409F8090809080810FFA7
:104B9000800860481828040802180108681BB3F54B
:104BA00044138089176BFF0C8019412811021004EF
:104BB00010181FE01002100110023FFC1044100FEB
:104BC000BC080208440FA8F81008680F86021808ED
:104BD000067F1A42E2420202270A4206FF03402BE6
:104BE000BBAFAA1204241FFFE01220124018088055
:104BF000FFFC02020402641A02191966101FBDDFCD
:104C0000100817CC90087070179010507CBC550499
:104C1000569454E454965481FC8241FC1A808813C3
:104C2000CF0212421333FC12092016121FFC11107E
:104C3000110811F21004FFC8103850C633011007D4
:104C400014CEAA04100E04020404440824103420D4
:104C500004C007300EFC4004200432040104020F9B
:104C6000FC041BC4FA76130C0810143FEEC40108B0
:104C7000813111E649202D2FC1200122072913314E
:104C800088220613B7FE19AB100C7FFC4440444247
:104C90004441FFFE40180D7FFF410241EC4510FDED
:104CA0002C41C3AC1113CEF1181880048008811177
:104CB00041F1422A4C2BF024402A422A4131422120
:104CC0007CA62AC0AAA3A1FC1202120C123C1C7FD3
:104CD000FE3C08193D71B3A1FD124012301C3C7F0F
:104CE000FE271A300C692242FB1201180C038003C4
:104CF0008007C007C00920010E890219224AFA2242
:104D0000A9022B09202C29342922100CD2C62420D8
:104D1000244025807FFFC5181344C10801111131BB
:104D200022EA622794248C288830B0AC111008CF76
:104D3000E0082008C00B14FFFF091A08BA1B7FFF08
:104D4000F659022BFFFF8D16C8B7208021281A279D
:104D5000FE3904210463FD24020FFC1490E4902F1B
:104D6000FE349024910FFF042213CF02124212222C
:104D70001333FC12091A12E71D700380FCB8111AD4
:104D8000700C2A03F51BB7B5221602220433F81261
:104D90000428121A3FE12009251124A1244145A12C
:104DA000C611401B2223BBD82D3FFE2004023C2706
:104DB000F424013C2FF42410347FFE201CBEB421C7
:104DC00064181A2DFCF508250825FAF40127FE249D
:104DD000010B82F86C081008EC1F03084414C7EBA1
:104DE0000412441337FE1504040844181055FF55E7
:104DF000505550FD5055525551D7FE45792113C697
:104E0000DA1808211022FFEC1520021628FFE51001
:104E1000221E247FF84440EE2C41FFFEEE13B4FD29
:104E200015400880111423FFCC1814024022502290
:104E30004C2240FE42224123FE624026C00223143F
:104E4000B3A40149023016FFFF0102010205C409A3
:104E5000201110210861040106030401100CB0B4F4
:104E6000088008820901FFFE09120530121901119C
:104E70002111D2970C5108111411E21503191817BA
:104E8000B6CC04810882F08C1FF030881186208215
:104E900027D2244E244202164E6FD2240629CC1B60
:104EA000D0020712023018FFF804110C210442202E
:104EB0000420183FE02002200120027FFC20180976
:104EC000BBBB08400842088166101421092117E283
:104ED0002424E4282FF0342824240FE2042322225F
:104EE000100ECAE411901690F8A013FF30A0141011
:104EF0000A09FF1550655185FF64300814F8080150
:104F00000DFF0833B3F66C7F3F02016BFFFE0A13FF
:104F10003F02427F14BFAA01100A41014102410C25
:104F20007FF0416902147FFF4112C1124329EE2331
:104F3000BDE1100C0C4414C62544C648084810189E
:104F400008127F12421242FE041F124232FF10402A
:104F5000881AF8B818100227E4244424482450245E
:104F600060FFFF246008180A4824482FE4640620E4
:104F70000466100BC62410246025807FFFC51344EF
:104F800080162044203320190213FFFF3A400211FB
:104F90001820BCBC082008220841FFFE0880090137
:104FA0001001110211C21134FF0811141162118194
:104FB00010891BD1B98F1E067FF84002AE39023B23
:104FC0005FFE08180822411A41024002881011FDB4
:104FD00009414A592C6A08C6FF44084A2C714A28DC
:104FE0000D01010E02F1CC103010CC1F024413D67B
:104FF000B51A8045112C1FFFE0B21FFE2552255225
:10500000FD0417255227FE2002194413C8FD0D1375
:10501000042004210219CA19CC180EBDC7040108C6
:105020000617F82490E4902402600D27FE24902CAB
:10503000903492049107FE180CB2A8082006204074
:105040003E30C0036D8D1FF81101CC1C15811888EE
:1050500013D5FD19B22D400243FE064C40027FCA13
:10506000390219CA198814CFD240200947C24441D5
:1050700044427C7C30121084118E12949CA470C423
:1050800010841314100E1014B7BD10100C10011062
:1050900002100410181FE09112711B11026A1C0209
:1050A00011FC18190221100ECAE411901698F890FC
:1050B00013FF10A008100A13FF2A484A498BFF4823
:1050C000300829FA10010BFE0833B3F66C3E3E029D
:1050D000016BFFFE0A133F02423F0313A1C02A8265
:1050E000024B0FFA080920CC23B8BA1017040108A4
:1050F0000117F22402E404241825E024082C0834C3
:105100000407F262011A31E35310F81620203F2001
:105110002012321B70080122F0173028242221307F
:1051200012331A30102388701718202121221C22D4
:10513000342C804030341009060524243F242435C3
:105140001EF888888808D71719202020110E1236DB
:1051500036E0108888901B0F1112121F12371A1890
:10516000434368182A3E7A12381A703129553B1C7D
:10517000225512391AF0662310E01701122222116B
:105180000F1A30444911170F102020100F922E5380
:0C5190003030323AABC0C01302220500E0
:04000005080000ED02
:00000001FF
